:020000040800F2
:1000000000000220013600087D3500087F35000819
:1000100081350008833500088535000800000000A0
:10002000000000000000000000000000873500080C
:1000300089350008000000008B3500088D35000868
:100040005136000851360008513600085136000874
:100050005136000851360008513600085136000864
:100060005136000851360008513600085136000854
:100070005136000851360008513600085136000844
:1000800095350008513600085136000851360008F1
:100090005136000851360008513600085136000824
:1000A0005136000851360008513600085136000814
:1000B0005136000851360008513600085136000804
:1000C00051360008513600085136000851360008F4
:1000D00051360008513600085136000851360008E4
:1000E00051360008513600085136000851360008D4
:1000F00051360008513600085136000851360008C4
:1001000051360008513600085136000851360008B3
:1001100051360008513600085136000851360008A3
:10012000A535000851360008513600085136000840
:100130005136000851360008513600085136000883
:100140005136000851360008513600085136000873
:100150005136000851360008513600085136000863
:100160005136000851360008513600085136000853
:1001700051360008513600085136000800000000D2
:08018000513600085136000859
:1001880010B5054C237833B9044B13B10448AFF3C9
:1001980000800123237010BD0C0000200000000027
:1001A800C436000808B5034B1BB103490348AFF335
:1001B800008008BD0000000010000020C4360008C0
:1001C80053B94AB9002908BF00281CBF4FF0FF31B6
:1001D8004FF0FF3000F072B9ADF1080C6DE904CEB4
:1001E80000F006F8DDF804E0DDE9022304B070470A
:1001F8002DE9F047089E04468846002B4BD18A42D9
:10020800154667D9B2FA82F24AB1C2F1200701FA5B
:1002180002F320FA07F7954047EA030894404FEAAB
:10022800154E230CB8FBFEF71FFA85FC0EFB17884A
:1002380043EA084307FB0CF1994209D9EB1807F187
:10024800FF3080F01B81994240F21881023F2B4415
:100258005B1AA4B2B3FBFEF00EFB103344EA03446E
:1002680000FB0CFCA44509D92C1900F1FF3380F0E0
:100278000781A44540F2048102382C4440EA074033
:10028800A4EB0C0400271EB1D4400023C6E90043A8
:100298003946BDE8F0878B4209D9002E00F0EB8083
:1002A8000027C6E9000138463946BDE8F087B3FAA9
:1002B80083F7002F47D18B4202D3824200F2FA80A3
:1002C800841A61EB030301209846002EE0D0C6E9AA
:1002D8000048DDE702B9FFDEB2FA82F2002A40F0F8
:1002E8008F80491B4FEA154E1FFA85F80127B1FB8D
:1002F800FEFC230C0EFB1C1143EA014308FB0CF126
:10030800994207D9EB180CF1FF3002D2994200F25A
:10031800CD808446591AA3B2B1FBFEF00EFB10142F
:1003280043EA044408FB00F8A04507D92C1900F15A
:10033800FF3302D2A04500F2B6801846A4EB0804A9
:1003480040EA0C409FE7C7F1200CBB4022FA0CFEA4
:100358004EEA030E01FA07F420FA0CF521FA0CF321
:100368004FEA1E482543B3FBF8F92C0C08FB193358
:100378001FFA8EFA44EA034309FB0AF49C4202FA84
:1003880007F200FA07F10BD91EEB030309F1FF305E
:1003980080F087809C4240F28480A9F1020973446E
:1003A8001B1BADB2B3FBF8F008FB103345EA03445E
:1003B80000FB0AFAA24508D91EEB040400F1FF333A
:1003C8006BD2A24569D90238744440EA0940A0FBBF
:1003D8000289A4EB0A044C45C2464B4654D351D07B
:1003E800002E69D0B1EB0A0564EB030404FA0CFC97
:1003F800FD40FC404CEA0505C6E90054002747E7E4
:10040800C2F1200320FA03F7954001FA02F021FA1D
:1004180003F34FEA154E3843010CB3FBFEF71FFAFE
:1004280085F80EFB173341EA034107FB08F38B42BB
:1004380004FA02F407D9691807F1FF3C2FD28B425E
:100448002DD9023F2944CB1A81B2B3FBFEF00EFB33
:10045800103341EA034100FB08F38B4207D96918BE
:1004680000F1FF3C17D28B4215D902382944C91A2A
:1004780040EA07473BE73746304609E70746E7E6DD
:100488001846FBE64145ABD2B8EB020A69EB0E020F
:1004980001381346A4E76046E9E7184695E767463A
:1004A800D1E781467CE702382C4447E7ACF1020CDF
:1004B8002B442FE7384608E73746E9E6704700BF80
:1004C80010B504460E4B18784FF47A73B3FBF0F36B
:1004D8000C4A1068B0FBF3F000F002FB68B90F2C6F
:1004E80001D901200AE0002221464FF0FF3000F038
:1004F800B7FA034B5C60002000E0012010BD00BF8C
:10050800000000200800002008B50B4B1A6842F4D0
:1005180000721A601A6842F480621A601A6842F41B
:1005280080721A60032000F089FA0020FFF7C8FFE4
:1005380002F0F2FE002008BD003C0240034A1168A8
:10054800034B1B780B441360704700BF88000020E2
:1005580000000020014B1868704700BF8800002089
:10056800494B5A6822F440325A605A6841680A4333
:100578005A600268536823F48073536002685368B2
:10058800016943EA012353600268536823F040730A
:1005980053600268536881680B435360026893682C
:1005A80023F40063936002689368C1680B43936007
:1005B800826A364B9A4249D00268936823F0706386
:1005C800936002689368816A0B439360026893683A
:1005D80023F04053936002689368C16A0B439360A9
:1005E8000268936823F00203936002689368816944
:1005F80043EA41039360036A002B32D102685368CF
:1006080023F4006353600268D36A23F47003D3624F
:100618000168CB6AC269013A43EA0253CB620268B5
:10062800936823F40073936002689368016B43EA4C
:10063800412393600268936823F48063936002689F
:100648009368416943EA812393607047026893681D
:1006580023F0706393600268936823F040539360BB
:10066800BEE70268536843F4006353600268536846
:1006780023F46043536001684B68426A013A43EAD5
:1006880042334B60BFE700BF002301400100000F69
:1006980030B310B50446036C43B1236C13F0100F4C
:1006A8000AD00120002384F83C3010BD436480F850
:1006B8003C3002F04DFEF0E7236C23F4885323F01E
:1006C800020343F0020323642046FFF749FF00209A
:1006D8006064236C23F0030343F001032364E1E720
:1006E8000120704730B583B00023019390F83C3067
:1006F800012B00F08180012380F83C300468A36856
:1007080013F0010F13D1A36843F00103A3603F4B1B
:100718001C683F4BA3FB0434A40C04EB4404019471
:1007280002E0019C013C0194019C002CF9D1036872
:100738009C6814F0010F61D0046C24F4E06424F088
:10074800010444F4807404645B6813F4806F05D07A
:10075800036C23F4405343F480530364036C13F491
:10076800805F36D0436C23F0060343641346044687
:10077800002280F83C20826B2648D063A26B264872
:100788001064A26B2548D06422686FF022001060C4
:100798002568686840F0806068602568A86840F44B
:1007A8008070A86020680A4600F14C01A06B00F038
:1007B8008FFA1B4B5B6813F01F0F0DD123689A68E3
:1007C80012F0405F1DD19A6842F080429A60002082
:1007D80015E000234364C9E72368124A934201D015
:1007E80000200CE09A6812F0405F0CD19A6842F041
:1007F80080429A60002002E0022000E0002003B05E
:1008080030BD0020FBE70020F9E700BF080000200A
:1008180083DE1B4331080008930800089F0800087E
:10082800002301400020014008B5836B1A6C12F0C8
:10083800500F03D09B6BDB6C984708BD1A6C42F4D1
:1008480000721A641A68916811F0405F19D19969A9
:10085800B9B9D16A11F4700F03D0916811F4806F9F
:100868000FD1516821F0200151601A6C22F4807276
:100878001A641A6C12F4805F03D11A6C42F00102F8
:100888001A64184602F09CFCD7E708B5806B02F0A2
:100898008BFC08BD704708B5806B40230364436C2C
:1008A80043F004034364FFF7F5FF08BD30B482B09A
:1008B8000023019390F83C30012B00F0B78001230E
:1008C80080F83C300B68092B3ED90568EA689BB272
:1008D80003EB43031E3B072404FA03F322EA030352
:1008E800EB600568EA688C680B8803EB43031E3BE2
:1008F80004FA03F31343EB604B68062B3AD80568F8
:100908006A6B03EB8303053B1F2404FA03F322EA13
:1009180003036B6305686A6B4B6803EB8303053B52
:100928000C8804FA03F313436B630268404B9A4242
:1009380050D002683E4B9A4255D0002380F83C3094
:10094800184602B030BC704705682A699BB203EBB1
:100958004303072404FA03F322EA03032B6105681F
:100968002A698C680B8803EB430304FA03F31343E7
:100978002B61C1E70C2B16D805682A6B03EB8303A0
:10098800233B1F2404FA03F322EA03032B630568BD
:100998002A6B4B6803EB8303233B0C8804FA03F3AD
:1009A80013432B63C1E70568EA6A03EB8303413B02
:1009B8001F2404FA03F322EA0303EB620568EA6AD8
:1009C8004B6803EB8303413B0C8804FA03F313439E
:1009D800EB62AAE70B68122BABD1164A536843F4B3
:1009E80080035360A5E70B68103B012BA5D8114A7B
:1009F800536843F4000353600B68102B9DD10E4BD2
:100A08001B6802F1467202F52E3202F28332A2FB13
:100A180003239B0C03EB83035A00019202E0019B22
:100A2800013B0193019B002BF9D186E7022088E75F
:100A3800002001400023014008000020074AD36835
:100A480023F4E0631B041B0C000200F4E06018436D
:100A580040F0BF6040F40030D060704700ED00E027
:100A680030B4174BDB68C3F30223C3F10704042C2B
:100A780028BF04241D1D062D18D9033B4FF0FF3550
:100A880005FA04F421EA0401994005FA03F322EA7D
:100A98000303194300280BDB0901C9B200F16040C8
:100AA80000F5614080F8001330BC70470023E5E78B
:100AB80000F00F000901C9B2024B1954F4E700BF56
:100AC80000ED00E014ED00E000F01F0240090123F2
:100AD8009340024A42F82030704700BF00E100E02E
:100AE8000138B0F1807F0AD2064B5860064AF021DF
:100AF80082F823100020986007221A6070470120AE
:100B0800704700BF10E000E000ED00E030B4056879
:100B18002C6824F480242C60046863608368402B6C
:100B280005D0036899600368DA6030BC70470368D1
:100B38009A600368D960F8E70268D3B2103B0B49A2
:100B4800A1FB03131B090A49C95CC165032B06D81D
:100B580022F47F7222F003028265806D704722F4CE
:100B68007F7222F0030204328265F6E7ABAAAAAAD2
:100B7800DC360008836A826992B9012B0AD01BB15E
:100B8800022B01D000207047C36A13F0807F2CD15C
:100B980000207047C36AB3F1C07F28D00020704797
:100BA800B2F5005F05D0022B29D9032B15D0002000
:100BB8007047032B03D8DFE803F01C041C0A00204D
:100BC8007047C36A13F0807F15D100207047C36A4D
:100BD800B3F1C07F11D000207047C36A13F0807F43
:100BE80001D0012070470020704701207047012084
:100BF800704701207047012070470120704701208D
:100C08007047000070B50446FFF7A4FC002C5BD0C9
:100C18000546002384F83430022384F835302268EE
:100C2800136823F00103136023681A6812F0010F98
:100C38000AD0FFF78FFC401B0528F5D920236365F0
:100C4800032084F8350070BD1A6820481040616898
:100C5800A2680A43E1680A4321690A4361690A43B1
:100C6800A1690A43E1690A43216A0A430243616AA6
:100C780004291ED01A602668756925F00705636A7D
:100C88001D43042B07D1A36A1D43E36A1BB1204609
:100C9800FFF770FF90B975612046FFF74DFFE26DD1
:100CA8003F239340836000206065012384F835303A
:100CB800C9E7E16A206B01430A43DBE74023636528
:100CC800012084F83500BEE70120BCE73F8010F022
:100CD80038B5856D90F83440012C31D0012480F866
:100CE800344090F83540E4B2012C04D0002380F859
:100CF8003430022038BD0446022084F83500002034
:100D080060652046FFF702FFE26D3F239340AB602A
:100D18002268136843F0160313602268536943F08E
:100D280080035361236C23B12268136843F00803DE
:100D380013602268136843F0010313600020D9E7A9
:100D48000220D7E7F0B583B0044600230193724B25
:100D58001D68724BA3FB0535AD0A876D3E68C26DF1
:100D680008239340334210D003681A6812F0040F26
:100D78000BD01A6822F004021A60C26D082393404F
:100D8800BB60436D43F001034365E26D012393406B
:100D9800334209D02268526912F0800F04D0BB6038
:100DA800636D43F002036365E26D042393403342AD
:100DB80009D02268126812F0020F04D0BB60636D7C
:100DC80043F004036365E26D10239340334224D05B
:100DD8002268126812F0080F1FD0BB6023681A68D7
:100DE80012F4802F0DD01B6813F4002F04D1236C4C
:100DF8009BB12046984710E0A36C73B120469847F2
:100E08000BE01A6812F4807F03D11A6822F00802F6
:100E18001A60236C0BB120469847E26D202393405B
:100E2800334255D02268126812F0100F50D0BB60C0
:100E380094F83530DBB2052B0ED023681A6812F40B
:100E4800802F33D01B6813F4002F2AD1636C002B3A
:100E58003ED0204698473BE02268136823F01603EB
:100E680013602268536923F080035361236CA3B194
:100E78002268136823F008031360E26D3F23934050
:100E8800BB60002384F83430012384F83530236DA7
:100E9800002B3FD0204698473CE0A36C002BE7D1BD
:100EA800EBE7E36BA3B12046984711E01A6812F408
:100EB800807F09D11A6822F010021A60002384F892
:100EC8003430012384F83530E36B0BB12046984762
:100ED800636DFBB1636D13F0010F17D0052384F820
:100EE80035302268136823F001031360019B013336
:100EF8000193AB4204D823681B6813F0010FF5D1A6
:100F0800002384F83430012384F83530E36C0BB1C6
:100F18002046984703B0F0BD08000020B5814E1B5D
:100F280000230F2B00F2D780F0B482B039E00722FB
:100F380000E00022B2403A430234674E46F82420CB
:100F4800664A1468EA4302EA04064F6817F4803FC9
:100F580001D045EA0406614C2660646802EA04068A
:100F68004F6817F4003F01D045EA04065B4C666001
:100F7800A46802EA04064F6817F4801F01D045EA06
:100F88000406564CA660E46822404E6816F4001F1A
:100F980001D045EA0402514CE26001330F2B00F204
:100FA800978001229A400C6804EA0205AA42F4D10B
:100FB8004C68022C01D0122C10D1DE08083650F8EB
:100FC80026C003F00704A7000F24BC402CEA040C39
:100FD8000C69BC4044EA0C0440F8264004685F00F1
:100FE8000326BE40F64306EA040C4C6804F00304EA
:100FF800BC4044EA0C0404604C6804F1FF3CBCF1BA
:10100800010F03D9112C01D0122C10D1846806EAE3
:10101800040CCC68BC4044EA0C048460446824EAAC
:1010280002024C68C4F300149C4014434460C26834
:1010380016408A68BA403243C2604A6812F0805F3C
:10104800ABD000220192264A546C44F48044546484
:10105800526C02F480420192019A9C08A61C1E4A16
:1010680052F8267003F0030296000F22B24027EAD6
:1010780002071C4A90423FF45CAF02F5806290423E
:101088001AD002F58062904218D002F58062904230
:1010980016D002F58062904214D002F58062904228
:1010A80012D002F58062904210D002F58062904220
:1010B8003FF43DAF08223DE701223BE7022239E732
:1010C800032237E7042235E7052233E7062231E712
:1010D80002B0F0BC7047704700380140003C014046
:1010E800003802400000024012B9090481617047CB
:1010F80081617047436959404161704703685A6983
:1011080012F4806F0DD06FF480625A610423036477
:1011180000230363202280F83D2080F83C30012022
:10112800704700207047F8B506460C4617461D461E
:101138001EE02DB1FFF70EFA069BC01AA84217D978
:1011480000233363202286F83D2086F83E3086F857
:101158003C3003201AE033685B6924EA03039BB23E
:10116800B3FA83F35B099F420FD1B5F1FF3FE0D19A
:10117800C4F30743012BEED033689B6924EA0303C9
:101188009BB2B3FA83F35B09EDE70020F8BDF8B52D
:1011980004460D4616461F4632E01A6842F40072AD
:1011A8001A6023686FF480625A6104232364002361
:1011B8002363202284F83D2084F83C3001202DE070
:1011C80026B1FFF7C7F9C01BB04219D90023236322
:1011D800202284F83D2084F83C3003201EE0236858
:1011E8005B6925EA03039BB2003318BF0123A3B14F
:1011F80023685A6912F4806FCFD1B6F1FF3FDFD16F
:10120800C5F30743012BEAD023689B6925EA03034A
:101218009BB2003318BF0123E9E70020F8BD0000A6
:10122800F0B583B004460D4616461F46C36A042B24
:101238000DD0012B0BD013F5803F08D0036B122B78
:101248000AD10268136843F48073136004E02268CB
:10125800136843F4807313600097334600224FF0FD
:1012680001112046FFF75FFF58BB2369B3F5804F94
:1012780010D1236805F0FE051D613B46324615492D
:101288002046FFF784FF0346E0B1236C042B1ED1F0
:10129800012317E0EB11226803F0060343F0F00383
:1012A80013613B4632460C492046FFF770FF20B1D8
:1012B800236C042B09D1012304E02368EDB21D61DE
:1012C800DBE70323184603B0F0BD0323FAE7032343
:1012D800F8E700BF02000100080001002DE9F04115
:1012E80084B004460D4616461F46C26A01680B685C
:1012F80043F480630B60042A0DD0012A0BD012F549
:10130800803F08D0036B112B0AD10268136843F49D
:101318008073136004E02268136843F480731360D9
:101328000097334600224FF001112046FFF7FBFEDD
:10133800002852D12369B3F5804F12D1236845F0B4
:101348000105EDB21D613B4632462A492046FFF7AA
:101358001EFF0346002841D0236C042B48D10123EB
:101368003CE04FEAE51808F00608236848F0F00268
:101378001A613B46324620492046FFF708FF20B154
:10138800236C042B2ED1012328E02368EDB21D61C4
:101398003B46324617492046FFF7F9FE20B1236C39
:1013A800042B21D1012319E00022039223685969F3
:1013B8000391996903910399196841F4807119603F
:1013C800009733464FF001112046FFF7ACFE68B98D
:1013D800226848F0F1031361B5E70323184604B007
:1013E800BDE8F0810323F9E70323F7E70323F5E7D3
:1013F8000323F3E7020001000800010070B504466A
:101408000D46164623685B6913F0800F19D12046F4
:10141800FFF774FEB8B9B5F1FF3FF3D025B1FFF778
:1014280099F8801BA842EDD9236C43F0200323646C
:1014380000232363202284F83D2084F83C300320D5
:1014480000E0002070BD0120FCE770B504460D46A1
:10145800164623685B6913F0040F19D12046FFF77D
:101468004DFEB8B9B5F1FF3FF3D025B1FFF772F8DB
:10147800801BA842EDD9236C43F02003236400238A
:101488002363202284F83D2084F83C30032000E0C8
:10149800002070BD0120FCE770B505460C461646D5
:1014A8002B685A6912F0400F22D15A6912F0100FB6
:1014B80011D124B1FFF74EF8801BA042F0D92B6C54
:1014C80043F020032B64202385F83D30002385F862
:1014D8003C30032070BD6FF010025A6100232B646A
:1014E8002B63202285F83D2085F83C300120F1E768
:1014F8000020EFE7002800F0828010B5044690F83D
:101508003D30002B41D0242384F83D3022681368F5
:1015180023F00103136001F03FF93A4BA3FB0023CA
:101528009B0C226853606168374A914232D8013374
:10153800226813626368344A934235D85B00B0FB73
:10154800F3F0C0F30B03032B00D804202368D86101
:10155800E369216A22680B4313602369E168226802
:101568000B4393606369A16922680B43D3602268C7
:10157800136843F00103136000202064202384F8DB
:101588003D30206384F83E0010BD80F83C3001F007
:1015980035FFB8E74FF4967202FB03F31B4AA2FB30
:1015A80003239B090133C3E7A16889B903EB43020D
:1015B800B0FBF2F2C2F30B02B2FA82F25209E2B9BC
:1015C80091B903EB4303B0FBF3F040F40040BDE7EF
:1015D80003EB830202EB8202B0FBF2F2C2F30B02CE
:1015E800B2FA82F25209EAE703EB830303EB8303BF
:1015F800B0FBF3F040F44040A8E70120A6E7012043
:10160800704700BF83DE1B43A0860100D34D6210E4
:101618002DE9F04184B004460E4690461F46FEF779
:1016280099FF94F83D30DBB2202B04D002263046D7
:1016380004B0BDE8F0810546009019230122544901
:101648002046FFF770FD002840F0998094F83C3060
:10165800012B00F09680012384F83C3023681A6837
:1016680012F0010F03D11A6842F001021A602268D1
:10167800136823F400631360212384F83D3010239A
:1016880084F83E3000232364C4F824806785A3F5DA
:101698008033E362638D23852B460A9A31462046C0
:1016A800FFF7BEFD064660B1236C042B04D100236E
:1016B80084F83C300126BAE7002384F83C3003263E
:1016C800B5E70023039323685A6903929B69039340
:1016D800039B10E0236C042B55D12268136843F454
:1016E800007313600126A2E72A460A992046FFF7ED
:1016F800ACFE00282BD1238D002B32D02A460A9924
:101708002046FFF77BFE0028E4D1636A5A1C626218
:1017180022681B781361638D013B9BB26385238D1F
:10172800013B9BB223852268516911F0040FDBD07D
:10173800002BD9D0636A591C61621B781361638DD1
:10174800013B9BB26385238D013B2385CCE7236C4A
:10175800042B1AD12268136843F40073136001261E
:1017680065E72268136843F400731360202384F844
:101778003D30002384F83E3084F83C3057E7022699
:1017880055E7022653E7032651E703264FE700BF34
:10179800020010002DE9F04186B004460E4690463E
:1017A8001F46FEF7D7FE94F83D30DBB2202B04D05D
:1017B8000226304606B0BDE8F081054600901923A0
:1017C80001228C492046FFF7AEFC002840F04B81EF
:1017D80094F83C30012B00F04881012384F83C3018
:1017E80023681A6812F0010F03D11A6842F0010247
:1017F8001A602268136823F400631360222384F8B4
:101808003D30102384F83E3000232364C4F824803C
:101818006785A3F58033E362638D23852B460C9A95
:1018280031462046FFF75AFD064660B1236C042B6B
:1018380004D1002384F83C300126BAE7002384F859
:101848003C300326B5E7238D5BB9029323685A69B8
:1018580002929A690292029A1A6842F400721A6015
:101868007AE0012B0FD0022B1FD02268136843F4B3
:10187800806313600023059323685A6905929B6966
:101888000593059B68E02268136823F4806313605E
:101898000023039323685A6903929A690392039A6F
:1018A8001A6842F400721A6056E02268136823F43A
:1018B800806313602268136843F400631360002395
:1018C800049323685A6904929B690493049B43E038
:1018D8002A460C992046FFF7DFFD68B923681A6984
:1018E800636A591C61621A70238D013B2385638DDD
:1018F800013B9BB263852FE0236C202B01D001268E
:1019080057E7032655E700950C9B00223A492046E5
:10191800FFF709FC002840F0AA802268136843F406
:101928000073136023681A69636A591C61621A702C
:10193800238D013B2385638D013B9BB2638523681F
:101948001A69636A591C61621A70238D013B2385E9
:10195800638D013B9BB26385238D002B7AD0032BCB
:101968004CD8012BB4D0022BCDD000950C9B002273
:1019780021492046FFF7D7FB00287AD1226813684F
:1019880023F48063136023681A69636A591C6162CF
:101998001A70238D013B2385638D013B9BB26385C0
:1019A80000950C9B002214492046FFF7BCFB002839
:1019B80061D12268136843F40073136023681A69BD
:1019C800636A591C61621A70238D013B2385638DFC
:1019D800013B9BB2638523681A69636A591C61627B
:1019E8001A70238D013B2385638D013B9BB2638570
:1019F800B2E700BF02001000040001002A460C995B
:101A08002046FFF749FDF0B923681A69636A591C33
:101A180061621A70238D013B2385638D013B9BB264
:101A2800638523685A6912F0040F95D01A69636AAE
:101A3800591C61621A70238D013B2385638D013B1C
:101A48009BB2638588E7236C202B01D00126B0E682
:101A58000326AEE6202384F83D30002384F83E3088
:101A680084F83C30A5E60226A3E60226A1E6032672
:101A78009FE603269DE603269BE600BF00294CD07F
:101A880010B50C46002A4AD090F84130DBB2012B41
:101A980047D141620368DB6903F00703032B04D0D5
:101AA800052B02D00285428503E0520092B20285DE
:101AB800428590F84030DBB2012B34D021460446F1
:101AC800012380F8403000234364032380F8413029
:101AD800836B164A1A64836B154ADA63836B154A5B
:101AE800DA640268038D0C32806BFFF7F1F8236823
:101AF800DA6912F4806F03D1DA6942F48062DA613C
:101B080023685A6812F0020F03D15A6842F00202A1
:101B18005A60002084F8400002E00120704701204C
:101B280010BD0220FCE70220FAE700BF431B0008B3
:101B3800871B0008591E0008704708B5806BFFF71F
:101B4800FBFF08BD704708B5436A9A1C42620268E9
:101B58001B88D360438D013B9BB24385438D9BB269
:101B680003B108BD0268536823F0A0031B041B0CD3
:101B78005360012380F84130FFF7E4FFF1E708B52F
:101B8800836B0268126812F4807F09D119684A6869
:101B980022F002024A6000225A85012283F841207D
:101BA8001846FFF7CFFF08BD704708B50368DA6825
:101BB800C36A991CC1621A80438E013B9BB243865B
:101BC800438E9BB203B108BD0268536823F06003DB
:101BD8001B041B0C5360012380F84130FFF7E4FF1E
:101BE800F1E77047002800F0BB8070B50446022575
:101BF80080F841505B4B436301F03AFC2268D3699B
:101C080023F47B6323F00F03D36123681D622368E9
:101C1800DD696369022B5BD0E368002B3ED0202688
:101C2800A368202B00D87600012000F06FFE2369FE
:101C3800B3F5007F34D0B0FBF6F000EB8000430032
:101C48006269B3FBF2F30533474AA2FB0323DB08BF
:101C580003F001029B1AC3F34F0311029A1EFD2AD7
:101C680038D822690A43216813430B626268A16865
:101C7800E068238B03439BB20B439BB213439BB295
:101C880043F400631D432368DD61236A012B2AD0D6
:101C980000206064012384F8413070BD1026BFE73E
:101CA800E36853B1B600B0FBF6F000EB80004300E8
:101CB8006269B3FBF2F30533C6E7F600B0FBF6F052
:101CC80000EB800043006269B3FBF2F30533BBE726
:101CD8000021C3E7636C43F0100363642046FFF7F9
:101CE80080FF0120D9E7214B63632268204B9A4289
:101CF8001ED04FF04022D36923F47B6323F00F03F7
:101D0800D36122681A4B9A4214D04FF04023022222
:101D18001A622268164B9A420FD04FF04022D069BF
:101D28006168B1F5007F0AD0C1B94FF4807608E048
:101D3800104AE0E7A3F58063E9E70E4AEFE74FF4BE
:101D48008076A168E568238B2B439BB20B439BB23B
:101D5800334343F400630343D36199E70026F0E774
:101D680001207047811D0008CDCCCCCCC51F0008D0
:101D7800003800400034004010B584B004460268C2
:101D88009368039390F84130DBB2042B06D094F8A3
:101D98004130DBB2032B2ED004B010BD039B13F0EF
:101DA800010F03D0536813F0400F21D1039B13F0A8
:101DB800400FECD023685A6812F0200FE7D05A6819
:101DC80022F060021204120C5A6000230193236867
:101DD800DA6801929B680193019B012384F84130E2
:101DE800636C43F0020363642046FFF7FAFECEE714
:101DF800FFF7DBFEDAE7039B13F0020F04D023683A
:101E08005B6813F0800F1FD1039B13F0080FC3D03A
:101E180023685A6812F0200FBED05A6822F0A00238
:101E28001204120C5A600023029323689B680293E1
:101E3800029B012384F84130636C43F0040363641C
:101E48002046FFF7CEFEA7E72046FFF77CFEDBE73C
:101E580008B5806B0268536823F0030353600023BE
:101E680043854386012380F84130436C43F00803DF
:101E78004364FFF7B6FE08BD7047000008B5E9B92E
:101E8800436A9A1C426202681B88D360438D013BF7
:101E98009BB24385438D9BB24BB90268536823F0CC
:101EA800A0031B041B0C5360438E9BB203B108BDF7
:101EB800012380F84130FFF7DFFFF8E7436A9A1CF7
:101EC80042621A880168134B99421ED04FF0402392
:101ED800DA60438D013B9BB24385438D9BB2002B57
:101EE800E5D102680B4B9A4212D04FF0402253685A
:101EF80023F0A0035360438E9BB2002BD7D101235C
:101F080080F84130FFF7B8FFD1E7A3F58063DFE73A
:101F1800014AECE7003800400034004008B5E9B950
:101F28000368DA68C36A991CC1621A80438E013B50
:101F38009BB24386438E9BB24BB90268536823F029
:101F480060031B041B0C5360438D9BB203B108BD97
:101F5800012380F84130FFF78FFFF8E70268154B3F
:101F68009A4222D04FF04023DA68C36A991CC162B2
:101F78001A80438E013B9BB24386438E9BB2002B53
:101F8800E5D102680B4B9A4212D04FF040225368B9
:101F980023F060035360438D9BB2002BD7D10123FC
:101FA80080F84130FFF768FFD1E7A3F58063DBE7EE
:101FB800014AECE7003800400034004010B584B016
:101FC800044603689A6803927C4A93425DD04FF0B6
:101FD80040218A680292DA6902F44072B2F5007F01
:101FE80004D0DA6912F4407F40F08180039A12F03D
:101FF800020F03D05B6813F0800F48D1029B13F0E7
:10200800010F09D022686D4B9A4245D04FF040230A
:102018005B6813F0400F42D1029B13F0400F09D0C8
:102028002268664B9A423FD04FF040235A6812F01C
:10203800200F3CD1039B13F0080F24D023685A6863
:1020480012F0200F1FD05A6822F0A0021204120CBE
:102058005A602268594B9A4247D04FF04022536841
:1020680023F0600353600023019323689B68019366
:10207800019B012384F84130636C43F004036364DB
:102088002046FFF7AEFD04B010BD4D49A1E7002181
:102098002046FFF7F3FEB1E7A3F58063B8E7012117
:1020A8002046FFF73BFFB7E7A3F58063BEE75A6812
:1020B80022F060025A602268536823F0A0031B04D0
:1020C8001B0C5360002300932368DA6800929B6816
:1020D8000093009B012384F84130636C43F00203B2
:1020E80063642046FFF77DFDA4E7354AB7E7029B06
:1020F80013F0020F03D04B6813F0800F4FD1039BEE
:1021080013F0010F04D023685B6813F0400F4BD124
:10211800039B13F0400F1ED023685A6812F0200F5B
:1021280019D05A6822F060021204120C5A60226810
:10213800224B9A423DD04FF04022536823F0A0032F
:102148005360012384F84130636C43F002036364F5
:102158002046FFF746FD029B13F0080F93D0226834
:10216800164B9A4227D04FF040235A6812F0200F9E
:1021780089D05A6822F0A0025A602268536823F076
:1021880060031B041B0C5360012384F84130636C0B
:1021980043F0040363642046FFF723FD73E701213E
:1021A8002046FFF76BFEAAE700212046FFF7B6FEA0
:1021B800AEE7034AC1E7A3F58063D6E700380040DD
:1021C80000340040002800F0BB8170B582B004469E
:1021D800036813F0010F3BD0A74B9B6803F00C0377
:1021E800042B2CD0A44B9B6803F00C03082B21D0A4
:1021F8006368B3F5803F4FD0B3F5A02F52D09E4B04
:102208001A6822F480321A601A6822F480221A604E
:102218006368002B50D0FEF79DF90546964B1B6866
:1022280013F4003F14D1FEF795F9401B6428F5D943
:1022380003208AE1904B5B6813F4800FD8D08E4B53
:102248001B6813F4003F03D06368002B00F07A8109
:10225800236813F0020F55D0874B9B6813F00C0FBF
:102268003ED0854B9B6803F00C03082B33D0E36802
:10227800002B68D0814B01221A60FEF76BF90546E6
:102288007D4B1B6813F0020F54D1FEF763F9401B16
:102298000228F5D9032058E1774A136843F48033BC
:1022A8001360B5E7744B1A6842F480221A601A6802
:1022B80042F480321A60ABE7FEF74CF905466E4BE4
:1022C8001B6813F4003FC3D0FEF744F9401B642891
:1022D800F5D9032039E1684B5B6813F4800FC6D148
:1022E800654B1B6813F0020F04D0E368012B01D083
:1022F80001202AE1604A136823F0F803216943EAC0
:10230800C1031360236813F0080F40D0636963B3F7
:102318005B4B01221A60FEF71DF90546564B5B6FB1
:1023280013F0020F33D1FEF715F9401B0228F5D937
:1023380003200AE1504A136823F0F803216943EAAD
:10234800C1031360DEE74D4B00221A60FEF702F965
:102358000546494B1B6813F0020FD3D0FEF7FAF875
:10236800401B0228F5D90320EFE0454B00221A60F4
:10237800FEF7F0F80546404B5B6F13F0020F06D0EE
:10238800FEF7E8F8401B0228F5D90320DDE02368B2
:1023980013F0040F79D0384B1B6C13F0805F33D1E6
:1023A80000230193344B1A6C42F080521A641B6C60
:1023B80003F080530193019B0125324B1B6813F4F2
:1023C800807F23D0A368012B34D0052B38D02A4B2B
:1023D8001A6F22F001021A671A6F22F004021A67B4
:1023E800A368002B36D0FEF7B5F80646224B1B6FC4
:1023F80013F0020F48D1FEF7ADF8801B41F2883385
:102408009842F3D90320A0E00025D6E71D4A1368B7
:1024180043F480731360FEF79DF80646194B1B685A
:1024280013F4807FCED1FEF795F8801B0228F5D9EA
:1024380003208AE0104A136F43F001031367CFE7C4
:102448000D4B1A6F42F004021A671A6F42F001022C
:102458001A67C5E7FEF77EF80646074B1B6F13F0B1
:10246800020F11D0FEF776F8801B41F288339842AC
:10247800F3D9032069E000BF00380240000047425A
:10248800800E474200700040E5B9A369002B5BD07D
:10249800304A926802F00C02082A58D0022B17D052
:1024A8002D4B00221A60FEF755F80446294B1B688D
:1024B80013F0007F42D0FEF74DF8001B0228F5D933
:1024C800032042E0234A136C23F080531364DCE7B3
:1024D800214B00221A60FEF73DF805461D4B1B688C
:1024E80013F0007F06D0FEF735F8401B0228F5D917
:1024F80003202AE0E369226A1343626A43EA8213EB
:10250800A26A5208013A43EA0243E26A43EA0263D2
:10251800104A5360104B01221A60FEF71BF804465C
:102528000C4B1B6813F0007F06D1FEF713F8001B55
:102538000228F5D9032008E0002006E0002004E086
:1025480001207047012000E0002002B070BD01208A
:10255800FBE700BF0038024060004742324B9B68EF
:1025680003F00C03042B5CD0082B01D02F487047D4
:102578002DE9F04B2C4B5A6802F03F025B6813F4CC
:10258800800F2BD0284B5B68C3F388131E460027A7
:102598005C010025E41A65EB0705A90141EA94618D
:1025A800A001001B61EB0501CB0043EA5073C40096
:1025B800A01943EB07014B0243EAD05344022046DB
:1025C80019460023FDF7FCFD174B5B68C3F3014375
:1025D80001335B00B0FBF3F0BDE8F08B124B5B6896
:1025E800C3F388131E4600275C010025E41A65EB37
:1025F8000705A90141EA9461A001001B61EB0501EF
:10260800CB0043EA5073C400A01943EB07018B02C7
:1026180043EA90538402204619460023FDF7D0FD73
:10262800D2E70348704700BF003802400024F40096
:1026380000127A00002800F09D8070B504464F4BC8
:102648001B6803F00F038B4209D2CBB24B4A1370BD
:10265800136803F00F038B4201D0012070BD23687B
:1026680013F0020F17D013F0040F04D0444A9368F4
:1026780043F4E0539360236813F0080F04D0404AF2
:10268800936843F4604393603D4A936823F0F003F2
:10269800A068034393600D46236813F0010F32D0FE
:1026A8006368012B21D09A1E012A25D9344A126861
:1026B80012F0020F60D032498A6822F003021343F5
:1026C8008B60FDF747FF06462D4B9B6803F00C0314
:1026D8006268B3EB820F16D0FDF73CFF801B41F216
:1026E80088339842F0D90320B8E7254A126812F4D3
:1026F800003FE0D10120B1E7214A126812F0007FC3
:10270800D9D10120AAE71D4B1B6803F00F03AB4288
:1027180009D9EAB2194B1A701B6803F00F03AB42D0
:1027280001D001209AE7236813F0040F06D0144A59
:10273800936823F4E053E1680B439360236813F034
:10274800080F07D00E4A936823F46043216943EACF
:10275800C1039360FFF702FF094B9B68C3F30313A0
:10276800084AD35CD840084B18600020FDF7A8FE43
:10277800002073E70120704701206FE7003C02400A
:1027880000380240E436000808000020014B1868B1
:10279800704700BF0800002008B5FFF7F7FF044B9B
:1027A8009B68C3F38223034AD35CD84008BD00BFAB
:1027B80000380240F436000830B583B00446036898
:1027C80013F0050F06D1236813F0020F2ED1002055
:1027D80003B030BD494B00221A60FDF7BBFE054629
:1027E800474B1B6813F0006F06D0FDF7B3FE401B84
:1027F8000228F5D90320EBE76268A3681B0743EAC0
:1028080082133F4AC2F884303C4B01221A60FDF71C
:10281800A1FE05463A4B1B6813F0006FD3D1FDF7B4
:1028280099FE401B0228F5D90320D1E70023019324
:10283800334B1A6C42F080521A641B6C03F08053BD
:102848000193019B2F4A136843F480731360FDF7CB
:1028580081FE05462B4B1B6813F4807F06D1FDF7DC
:1028680079FE401B0228F5D90320B1E7244B1B6FE2
:1028780013F4407312D0E26802F440729A420DD009
:102888001F4B1A6F22F440721F4901200860002074
:1028980008601A671B6F13F0010F13D1E36803F484
:1028A8004072B2F5407F1ED0154A936823F4F8139E
:1028B800936013490B6FE268C2F30B0213430B6773
:1028C800002085E7FDF746FE05460D4B1B6F13F00C
:1028D800020FE3D1FDF73EFE401B41F288339842D8
:1028E800F3D9032074E706498A6822F4F81223F022
:1028F800704323F4407313438B60DAE76800474260
:102908000038024000700040400E474201282AD19A
:10291800174B9B6813F4000303D0012B25D11548EE
:102928007047134B5B6813F4800F14D0104B5B682F
:1029380003F03F031048B0FBF3F00D4AD2F884309F
:10294800C3F3881300FB03F0D2F88430C3F3027397
:10295800B0FBF3F07047064B5B6803F03F03074892
:10296800B0FBF3F0E9E7002070470020704700BF94
:10297800003802400080BB0000127A000024F400F6
:1029880010B4036A046A24F001040462846924F020
:10299800F00444EA021223F00A030B438261036243
:1029A8005DF8044B704710B4036A23F01003036208
:1029B8008469036A24F4704444EA023223F0A003D1
:1029C80043EA0113826103625DF8044B7047836830
:1029D80023F0700341F0070119438160704710B478
:1029E800846824F47F4442EA03230B43234383602F
:1029F8005DF8044B7047022380F839300268136889
:102A080043F001031360012380F839300020704738
:102A180090F83830012B7DD010B50446012380F89A
:102A28003830022380F839300268936823F47F43F2
:102A380023F0770393600B68402B57D010D9702B85
:102A48003ED01FD8502B47D0602B32D1CA68496876
:102A58000068FFF7A8FF60212068FFF7B8FF28E0AB
:102A6800102B4DD008D9202B4FD0302B21D130211D
:102A78000068FFF7ACFF1CE0DBB900210068FFF736
:102A8800A6FF16E0B3F5805F0ED0B3F5005F10D156
:102A9800CB684A6889680068FFF7A1FF22689368D5
:102AA80043F48043936004E00268936823F00703CB
:102AB8009360012384F83930002084F8380010BD71
:102AC800CB684A6889680068FFF789FF22689368BD
:102AD80043F077039360ECE7CA6849680068FFF73A
:102AE8004FFF50212068FFF772FFE2E7CA68496884
:102AF8000068FFF745FF40212068FFF768FFD8E727
:102B080010210068FFF763FFD3E720210068FFF773
:102B18005EFFCEE70220704703682E4A904212D02B
:102B2800B0F1804F0FD0A2F57C4290420BD002F555
:102B38008062904207D002F58062904203D002F58D
:102B48007842904203D123F070034A681343214A24
:102B580090422AD0B0F1804F27D0A2F57C42904213
:102B680023D002F5806290421FD002F58062904225
:102B78001BD002F57842904217D002F5705290426D
:102B880013D002F5806290420FD002F58062904225
:102B98000BD0A2F59832904207D002F5806290429D
:102BA80003D002F58062904203D123F44073CA68CF
:102BB800134303608B68C3620B688362054B9842BA
:102BC80003D003F58063984201D10B6903630123A5
:102BD8004361704700000140A8B110B5044690F861
:102BE80039305BB1022384F83930211D2068FFF7A2
:102BF80093FF012384F83930002010BD80F8383065
:102C080000F0A2FCEEE70120704790F83830012B65
:102C180022D030B4012280F83820022380F83930DD
:102C28000468636823F070036360046863680D6870
:102C38002B4363600468A36823F08003A3600468DF
:102C4800A36849680B43A36080F83920002380F803
:102C58003830184630BC70470220704710B582B033
:102C6800064C20700B78637064230093022322467D
:102C78009421201DFEF7CCFC02B010BD28000020D6
:102C880070B582B00E460A4A144604F8040B64254F
:102C98000095012394212046FEF7BAFC00950123F4
:102CA800324694212046FEF775FD02B070BD00BF84
:102CB8002800002084B070B504AC84E80F009DF8AB
:102CC8006460444B002283F840201A68D36943F4B7
:102CD8008063D361012210213F48FEF705FA3F4C7B
:102CE800542204A9201D00F0D5FC0123637021465D
:102CF8000220FFF7B3FF2546AF2305F8013F294619
:102D08000420FFF7ABFF8023637029460520FFF7F7
:102D1800A5FF21460620FFF7B3FF637803F02003E1
:102D280043F00703637029460620FFF797FF2946FB
:102D38000820FFF7A5FF637803F0F00343F00103D1
:102D4800637029460820FFF789FF29460920FFF705
:102D580097FF637803F0F00343F00103637029469B
:102D68000920FFF77BFF29460E20FFF789FF012E78
:102D780028D016B9194B02225A70184D6C1C2146DE
:102D88000E20FFF76BFF21460F20FFF779FF002683
:102D98006E7021460F20FFF761FF6E7021461420E8
:102DA800FFF75CFF21461520FFF758FF21461A2040
:102DB800FFF754FF21461B20FFF750FFBDE8704086
:102DC80004B07047637843F0C00303F0C70363702F
:102DD800D3E700BF2C040020000C0240280000208C
:102DE80008B5032806D8DFE800F0020F13170C4BCC
:102DF800F0225A700A494B7843F00F0301F8013F5B
:102E08000420FFF72BFF08BD054BB0225A70F1E7ED
:102E1800034BE0225A70EDE7014BA0225A70E9E714
:102E28002800002038B50446A0F13203DBB25B006D
:102E3800114D05F8013F29461420FFF70FFF2946D9
:102E48001520FFF70BFF642C14D804EB440423016E
:102E58000A4A82FB03235B09183BDBB2064C04F8E1
:102E6800013F21462020FFF7F9FE21462120FFF7E8
:102E7800F5FE38BD1823F1E7280000201F85EB5127
:102E880038B5194D2C46992304F8013F21460020F6
:102E9800FFF7E4FE80236B7021464720FFF7DEFE34
:102EA80021463220FFF7ECFE6B7863F07F036B70EE
:102EB80021463220FFF7D2FE21463220FFF7E0FEFE
:102EC8006B7803F07F036B7021463220FFF7C6FE54
:102ED800002068702146FFF7C1FE9E236B702146D3
:102EE8000220FFF7BBFE38BD2800002030B58BB0AC
:102EF8000024059406940794089409940094234B9D
:102F08001A6B42F080021A631A6B02F08002009278
:102F1800009A01941A6B42F004021A631A6B02F0C9
:102F280004020192019A02941A6B42F001021A6398
:102F38001A6B02F001020292029A03941A6B42F091
:102F480008021A631A6B02F008020392039A0494A7
:102F58001A6B42F002021A631B6B03F0020304931C
:102F6800049B0B4D22464FF470412846FEF7BCF8EF
:102F78004FF470430593012306930794089405A919
:102F88002846FDF7CDFF0BB030BD00BF003802402A
:102F9800000C024010B582B000240094124B1A6B4A
:102FA80042F400121A631A6B02F400120092009A9B
:102FB80001941A6B42F480021A631B6B03F48003BA
:102FC8000193019B224621461020FDF749FD102060
:102FD800FDF77AFD224621463820FDF741FD3820CD
:102FE800FDF772FD02B010BD0038024070B584B024
:102FF80000250095019502950395114C114B23600E
:103008004FF480336360A5602561A56125624FF0A8
:103018008053E3624FF0C063A362E5600126E66176
:10302800266366612046FDF733FB0D230093019666
:10303800029569462046FDF739FC04B070BD00BF13
:10304800400300200020014030B587B000240294DE
:10305800039404940594009401940E4D4FF080431A
:103068002B6031236B60AC602223EB602C61284617
:10307800FFF7B2FD4FF48053029302A92846FFF7E9
:10308800C7FC20230093019469462846FFF7BDFD3D
:1030980007B030BDEC03002008B50948094B0360B0
:1030A800094B436000238360C3604FF48042026190
:1030B80043618361C3610362FEF71CFA08BD00BF68
:1030C8008C02002000540040A086010008B5094881
:1030D800094B03604FF40072426000238360C360B1
:1030E80002614BF6803242618361C3610362FEF77D
:1030F80079FD08BD2C040020003C004070B598B054
:10310800302200210DEB020000F0CFFA00240794D2
:10311800089409940A940B940394049405940694CF
:1031280001941F4B1A6C42F080521A641B6C03F016
:1031380080530193019B02941A4B1A6842F480420F
:103148001A601B6803F480430293029B01260C96C5
:103158004FF480330D93022512954FF48003139397
:1031680004231493A8221592169517930CA8FFF719
:1031780029F80F230793089509944FF4A0530A934D
:103188004FF480530B93052107A8FFF753FA0396D2
:1031980032230493059503A8FFF70EFB18B070BD02
:1031A8000038024000700040024B034A1A60034A8C
:1031B8005A607047800000208C00002074060020B0
:1031C800024B034A1A60034A5A6070478000002085
:1031D8008C0100207404002070B500242BE001222B
:1031E8004FF400412448FDF77FFF30E0224E4FF4B2
:1031F80080413046FDF77EFF00224FF40041304603
:10320800FDF772FF29E000224FF400511A48FDF73C
:103218006BFF1A4B19680888194A10805B684A5B6B
:1032280092B25A53A2000232495B89B299521A8863
:10323800144B1A800134FF2C1DDC65000F4B1B68F2
:1032480033F814309BB240F6B8329342C7D80B4BD0
:103258001B685B5B9BB2632BC8D9084B1B685B88F8
:103268009BB2B3F5FA6FCED901224FF40051024850
:10327800FDF73AFFCDE770BD000C0240800000204A
:10328800280400208803002000B593B0FDF73CF91E
:10329800FFF734FFFFF72AFEFFF77CFEFFF7A6FED5
:1032A800FFF7D2FEFFF7F8FEFFF710FF134C0023DD
:1032B8001193442204F11001684600F0EBF994E8F8
:1032C8000F00FFF7F7FC2820FFF7ACFD0320FFF7FE
:1032D80087FD0B48FFF78FFBFFF7D2FD4FF4807295
:1032E80008490948FDF7FEF94FF4EB720749084809
:1032F800FEF7C4FBFFF770FFFCE700BF8C0200205D
:10330800EC0300208C0000204003002074040020FF
:103318002C0400207047000082B0002100910B4B64
:103328005A6C42F480425A645A6C02F48042009209
:10333800009A01911A6C42F080521A641B6C03F0D7
:1033480080530193019B02B0704700BF00380240D0
:1033580030B589B00023039304930593069307932C
:10336800026803F1804303F590339A4201D009B013
:1033780030BD04460025019503F58C335A6C42F4A0
:1033880080725A645A6C02F480720192019A029512
:103398001A6B42F004021A631B6B03F004030293D6
:1033A800029B082303930323049303A91048FDF702
:1033B800B7FD1048104B036045608560C5604FF449
:1033C800806303614FF4006343614FF400538361EA
:1033D8004FF48073C36105624562FDF713FC18B9A9
:1033E800044BA3639C63C2E7FFF794FFF8E700BFB1
:1033F800000802408C0300201064024030B589B0F8
:103408000023039304930593069307930268154BCF
:103418009A4201D009B030BD00250195124C236BAA
:1034280043F002032363236B03F002030193019B20
:103438004FF410730393122304930123059303237A
:1034480006930423079303A90848FDF769FD02952D
:10345800236C43F400132364236C03F400130293D6
:10346800029BD7E7005400400038024000040240A5
:10347800F0B589B00023039304930593069307934B
:1034880002682C4B9A4201D009B0F0BD04460025D1
:10349800009503F5FE331A6C42F400421A641A6C64
:1034A80002F400420092009A01951A6B42F0010260
:1034B8001A631A6B02F001020192019A02951A6BC3
:1034C80042F004021A631B6B03F004030293029B8D
:1034D80010230393022704970626079603A9164884
:1034E800FDF71EFD4FF4A453039304970595069525
:1034F800079603A91148FDF713FD1148114B036006
:10350800456040238360C56005614FF400634361F3
:103518004FF4005383614FF48073C36105624562C1
:10352800FDF770FB18B9064BA3639C63ACE7FFF784
:10353800F1FEF8E7003C00400000024000080240AD
:10354800E0020020886002400368B3F1804F00D099
:10355800704782B000230193054B1A6C42F00102B8
:103568001A641B6C03F001030193019B02B07047BE
:10357800003802407047FEE7FEE7FEE7FEE77047C7
:103588007047704708B5FCF7D9FF08BD08B5024871
:10359800FDF7D8FB08BD00BFE002002008B50248CF
:1035A800FDF7D0FB08BD00BF8C0300200F49D1F800
:1035B800883043F47003C1F888300D4B1A6842F024
:1035C80001021A60002098601A6822F0847222F4BE
:1035D80080321A60074A5A601A6822F480221A60F8
:1035E800D8604FF000638B60704700BF00ED00E0CB
:1035F8000038024010300024DFF834D0002103E006
:103608000C4B5B58435004310B480C4B42189A4200
:10361800F6D30B4A02E0002342F8043B094B9A42D6
:10362800F9D3FFF7C3FF00F011F8FFF72DFE70473D
:10363800000002200C370008000000200C000020C9
:103648000C00002020080020FEE7000070B50D4E99
:103658000D4CA41BA4100025A54209D10B4E0C4CFF
:1036680000F02CF8A41BA4100025A54205D170BDBC
:1036780056F8253098470135EEE756F82530984733
:103688000135F2E70437000804370008043700085A
:103698000837000810B5431E0A44914200D110BDF6
:1036A80011F8014B03F8014FF7E702440346934230
:1036B80000D1704703F8011BF9E70000F8B500BF17
:1036C800F8BC08BC9E467047F8B500BFF8BC08BCFB
:0436D8009E46704753
:1036DC000006101600061016000000000000000086
:1036EC00010203040607080900000000010203049C
:0836FC00FCCAFF7F0100000081
:04370400AD0100080B
:04370800890100082B
:0C370C0001000000100000000024F40088
:0400000508003601B8
:00000001FF
